:020000040800F2
:1000000000C00020591F00086D1E00086F1E000868
:10001000711E0008731E0008751E00080000000015
:10002000000000000000000000000000771E000833
:10003000791E0008000000007B1E00087D1E0008DD
:10004000A91F0008A91F0008A91F0008A91F000870
:10005000A91F0008A91F0008A91F0008A91F000860
:10006000A91F0008A91F0008A91F0008A91F000850
:10007000A91F0008A91F0008A91F0008A91F000840
:10008000A91F0008A91F0008A91F0008A91F000830
:10009000A91F0008A91F0008A91F0008A91F000820
:1000A000A91F0008A91F0008A91F0008A91F000810
:1000B000A91F00080000000000000000A91F0008A0
:1000C000A91F0008A91F0008A91F0008A91F0008F0
:1000D000A91F0008A91F0008A91F0008891E000801
:1000E000A91F0008A91F0008000000000000000070
:1000F0000000000000000000000000000000000000
:1001000000000000A91F000800000000A91F00084F
:100110000000000000000000A91F0008A91F00083F
:10012000A91F0008A91F0008A91F0008A91F00088F
:10013000A91F0008000000000000000000000000EF
:10014000A91F0008A91F0008A91F0008A91F00086F
:10015000A91F0008A91F0008A91F0008A91F00085F
:10016000A91F0008A91F0008A91F0008000000001F
:10017000A91F0008A91F0008A91F0008000000000F
:0C018000A91F0008A91F0008A91F000803
:1001C00053B94AB9002908BF00281CBF4FF0FF31BE
:1001D0004FF0FF3000F00CB8ADF1080C6DE904CE23
:1001E00005F0A6FDDDF804E0DDE9022304B0704768
:1001F000704700BF00000000000000000000000089
:1002000001F0FF01102A2BDB10F0070F08D010F8C7
:10021000013B013A8B422DD010F0070F42B3F6D1CB
:10022000F0B441EA012141EA014122F007047FF0E4
:1002300000070023F0E80256083C85EA010586EA3B
:10024000010685FA47F5A3FA87F586FA47F6A5FA77
:1002500087F68EB9EED1F0BC01F0FF0102F0070283
:1002600032B110F8013B013A83EA010313B1F8D12E
:100270000020704701387047002D06BF354603380F
:10028000073815F0010F07D1013015F4807F02BF48
:10029000013015F4C03F0130F0BC0138704700BF99
:1002A000844641EA000313F003036DD1403A41D381
:1002B00051F8043B40F8043B51F8043B40F8043B40
:1002C00051F8043B40F8043B51F8043B40F8043B30
:1002D00051F8043B40F8043B51F8043B40F8043B20
:1002E00051F8043B40F8043B51F8043B40F8043B10
:1002F00051F8043B40F8043B51F8043B40F8043B00
:1003000051F8043B40F8043B51F8043B40F8043BEF
:1003100051F8043B40F8043B51F8043B40F8043BDF
:1003200051F8043B40F8043B51F8043B40F8043BCF
:10033000403ABDD2303211D351F8043B40F8043B6F
:1003400051F8043B40F8043B51F8043B40F8043BAF
:1003500051F8043B40F8043B103AEDD20C3205D37F
:1003600051F8043B40F8043B043AF9D2043208D077
:10037000D2071CBF11F8013B00F8013B01D30B88E9
:1003800003806046704700BF082A13D38B078DD0C7
:1003900010F003038AD0C3F10403D21ADB071CBF99
:1003A00011F8013B00F8013B80D331F8023B20F803
:1003B000023B7BE7043AD9D3013A11F8013B00F83C
:1003C000013BF9D20B7803704B7843708B788370C4
:1003D00060467047000000000000000000000000C0
:1003E000000000000000000000000000000000000D
:1003F00000000000000000000000000000000000FD
:1004000030B490F800F020F007016FF0000C10F00D
:10041000070491F820F040F048804FF000046FF09E
:100420000700D1E9002391F840F000F1080082FABA
:100430004CF2A4FA8CF283FA4CF3A2FA8CF34BBB85
:10044000D1E9022382FA4CF200F10800A4FA8CF2FE
:1004500083FA4CF3A2FA8CF3E3B9D1E9042382FACC
:100460004CF200F10800A4FA8CF283FA4CF3A2FAE1
:100470008CF37BB9D1E9062301F1200182FA4CF219
:1004800000F10800A4FA8CF283FA4CF3A2FA8CF380
:10049000002BC6D0002A04BF04301A4612BAB2FAA2
:1004A00082F200EBD20030BC7047D1E9002304F0A7
:1004B0000305C4F100004FEAC50514F0040F91F8DC
:1004C00040F00CFA05F562EA05021CBF63EA050379
:1004D00062464FF00004AAE781F0004102E000BF4D
:1004E00083F0004330B54FEA41044FEA430594EAF4
:1004F000050F08BF90EA020F1FBF54EA000C55EA2F
:10050000020C7FEA645C7FEA655C00F0E2804FEAFF
:100510005454D4EB5555B8BF6D420CDD2C4480EAE1
:10052000020281EA030382EA000083EA010180EA11
:10053000020281EA0303362D88BF30BD11F0004F5F
:100540004FEA01314FF4801C4CEA113102D0404295
:1005500061EB410113F0004F4FEA03334CEA1333D0
:1005600002D0524263EB430394EA050F00F0A780E8
:10057000A4F10104D5F1200E0DDB02FA0EFC22FAE3
:1005800005F2801841F1000103FA0EF2801843FAD7
:1005900005F359410EE0A5F120050EF1200E012AC8
:1005A00003FA0EFC28BF4CF0020C43FA05F3C01806
:1005B00051EBE37101F0004507D54FF0000EDCF17F
:1005C000000C7EEB00006EEB0101B1F5801F1BD328
:1005D000B1F5001F0CD349085FEA30004FEA3C0C2C
:1005E00004F101044FEA445212F5800F80F09A8022
:1005F000BCF1004F08BF5FEA500C50F1000041EB26
:10060000045141EA050130BD5FEA4C0C404141EB29
:100610000101013C28BFB1F5801FE9D291F0000F24
:1006200004BF01460020B1FA81F308BF2033A3F1D3
:100630000B03B3F120020CDA0C3208DD02F1140CCA
:10064000C2F10C0201FA0CF021FA02F10CE002F105
:100650001402D8BFC2F1200C01FA02F120FA0CFCFE
:10066000DCBF41EA0C019040E41AA2BF01EB045147
:10067000294330BD6FEA04041F3C1CDA0C340EDC45
:1006800004F11404C4F1200220FA04F001FA02F388
:1006900040EA030021FA04F345EA030130BDC4F146
:1006A0000C04C4F1200220FA02F001FA04F340EA3B
:1006B0000300294630BD21FA04F0294630BD94F0EC
:1006C000000F83F4801306BF81F480110134013DD3
:1006D0004EE77FEA645C18BF7FEA655C29D094EA44
:1006E000050F08BF90EA020F05D054EA000C04BFC2
:1006F0001946104630BD91EA030F1EBF00210020AD
:1007000030BD5FEA545C05D14000494128BF41F04B
:10071000004130BD14F580043CBF01F5801130BDAF
:1007200001F0004545F0FE4141F470014FF000003A
:1007300030BD7FEA645C1ABF194610467FEA655CEB
:100740001CBF0B46024650EA013406BF52EA03358D
:1007500091EA030F41F4002130BD00BF90F0000F7B
:1007600004BF0021704730B54FF4806404F13204B7
:100770004FF000054FF0000150E700BF90F0000F70
:1007800004BF0021704730B54FF4806404F1320497
:1007900010F0004548BF40424FF000013EE700BF67
:1007A00042004FEAE2014FEA31014FEA02701FBFF7
:1007B00012F07F4393F07F4F81F06051704732F029
:1007C0007F4208BF704793F07F4F04BF41F4002180
:1007D000704730B54FF4607401F0004521F00041DE
:1007E0001CE700BF50EA010208BF704730B54FF068
:1007F00000050AE050EA010208BF704730B511F069
:10080000004502D5404261EB41014FF4806404F1A0
:1008100032045FEA915C3FF4D8AE4FF003025FEA26
:10082000DC0C18BF03325FEADC0C18BF033202EBAA
:10083000DC02C2F1200300FA03FC20FA02F001FA04
:1008400003FE40EA0E0021FA02F11444BDE600BFA7
:1008500070B54FF0FF0C4CF4E06C1CEA11541DBF56
:100860001CEA135594EA0C0F95EA0C0F00F0DEF821
:100870002C4481EA030621EA4C5123EA4C5350EA06
:10088000013518BF52EA033541F4801143F4801357
:1008900038D0A0FB02CE4FF00005E1FB02E506F0E8
:1008A0000042E0FB03E54FF00006E1FB03569CF03D
:1008B000000F18BF4EF0010EA4F1FF04B6F5007F43
:1008C00064F5407404D25FEA4E0E6D4146EB0606B5
:1008D00042EAC62141EA55514FEAC52040EA5E503E
:1008E0004FEACE2EB4F1FD0C88BFBCF5E06F1ED8E8
:1008F000BEF1004F08BF5FEA500E50F1000041EB1F
:10090000045170BD06F0004646EA010140EA0200CB
:1009100081EA0301B4EB5C04C2BFD4EB0C0541EAED
:10092000045170BD41F480114FF0000E013C00F302
:10093000AB8014F1360FDEBF002001F0004170BD26
:10094000C4F10004203C35DA0C341BDC04F114043F
:10095000C4F1200500FA05F320FA04F001FA05F2CB
:1009600040EA020001F0004221F0004110EBD37098
:1009700021FA04F642EB06015EEA430E08BF20EAC4
:10098000D37070BDC4F10C04C4F1200500FA04F367
:1009900020FA05F001FA04F240EA020001F00041F9
:1009A00010EBD37041F100015EEA430E08BF20EA6C
:1009B000D37070BDC4F1200500FA05F24EEA020EB4
:1009C00020FA04F301FA05F243EA020321FA04F0E3
:1009D00001F0004121FA04F220EA020000EBD3709A
:1009E0005EEA430E08BF20EAD37070BD94F0000F9A
:1009F0000FD101F00046400041EB010111F4801FCE
:100A000008BF013CF7D041EA060195F0000F18BF7E
:100A1000704703F00046520043EB030313F4801FBA
:100A200008BF013DF7D043EA0603704794EA0C0F74
:100A30000CEA135518BF95EA0C0F0CD050EA41068A
:100A400018BF52EA4306D1D181EA030101F0004107
:100A50004FF0000070BD50EA410606BF104619462F
:100A600052EA430619D094EA0C0F02D150EA01363B
:100A700013D195EA0C0F05D152EA03361CBF10467C
:100A800019460AD181EA030101F0004141F0FE411B
:100A900041F470014FF0000070BD41F0FE4141F49F
:100AA000780170BD70B54FF0FF0C4CF4E06C1CEA9F
:100AB00011541DBF1CEA135594EA0C0F95EA0C0F54
:100AC00000F0A7F8A4EB050481EA030E52EA03350F
:100AD0004FEA013100F088804FEA03334FF0805530
:100AE00045EA131343EA12634FEA022245EA11155D
:100AF00045EA10654FEA00260EF000419D4208BF0E
:100B0000964244F1FD0404F5407402D25B084FEABA
:100B10003202B61A65EB03055B084FEA32024FF466
:100B200080104FF4002CB6EB020E75EB030E22BFC3
:100B3000B61A754640EA0C005B084FEA3202B6EB83
:100B4000020E75EB030E22BFB61A754640EA5C0032
:100B50005B084FEA3202B6EB020E75EB030E22BFC2
:100B6000B61A754640EA9C005B084FEA3202B6EBC3
:100B7000020E75EB030E22BFB61A754640EADC0082
:100B800055EA060E18D04FEA051545EA16754FEAE4
:100B900006164FEAC30343EA52734FEAC2025FEA02
:100BA0001C1CC0D111F4801F0BD141EA00014FF091
:100BB00000004FF0004CB6E711F4801F04BF014362
:100BC0000020B4F1FD0C88BFBCF5E06F3FF6AFAE7E
:100BD000B5EB030C04BFB6EB020C5FEA500C50F10E
:100BE000000041EB045170BD0EF0004E4EEA113191
:100BF00014EB5C04C2BFD4EB0C0541EA045170BD98
:100C000041F480114FF0000E013C90E645EA060EDB
:100C10008DE60CEA135594EA0C0F08BF95EA0C0F09
:100C20003FF43BAF94EA0C0F0AD150EA01347FF451
:100C300034AF95EA0C0F7FF425AF104619462CE728
:100C400095EA0C0F06D152EA03353FF4FDAE10468B
:100C5000194622E750EA410618BF52EA43067FF4DC
:100C6000C5AE50EA41047FF40DAF52EA43057FF46C
:100C7000EBAE12E74FF0FF3C06E000BF4FF0010C77
:100C800002E000BF4FF0010C4DF804CD4FEA410CDB
:100C90007FEA6C5C4FEA430C18BF7FEA6C5C1BD0A8
:100CA00001B050EA410C0CBF52EA430C91EA030F29
:100CB00002BF90EA020F0020704710F1000F91EA86
:100CC000030F58BF994208BF90422CBFD8176FEA54
:100CD000E37040F0010070474FEA410C7FEA6C5C22
:100CE00002D150EA013C07D14FEA430C7FEA6C5C29
:100CF000D6D152EA033CD3D05DF8040B704700BF55
:100D00008446104662468C461946634600E000BFA2
:100D100001B5FFF7B7FF002848BF10F1000F01BD74
:100D20004DF808EDFFF7F4FF0CBF012000205DF83F
:100D300008FB00BF4DF808EDFFF7EAFF34BF0120C4
:100D400000205DF808FB00BF4DF808EDFFF7E0FF5D
:100D500094BF012000205DF808FB00BF4DF808EDAE
:100D6000FFF7CEFF94BF012000205DF808FB00BF15
:100D70004DF808EDFFF7C4FF34BF012000205DF8F7
:100D800008FB00BF4FEA410C7FEA6C5C02D150EADD
:100D9000013C0AD14FEA430C7FEA6C5C02D152EA73
:100DA000033C02D14FF0000070474FF00100704744
:100DB0004FEA410212F5001215D211D56FF4787383
:100DC000B3EB625212D94FEAC12343F0004343EA26
:100DD000505311F0004F23FA02F018BF4042704701
:100DE0004FF00000704750EA013005D111F000408B
:100DF00008BF6FF0004070474FF00000704700BF21
:100E00000348044B834202D0034B03B11847704799
:100E1000E4060020E4060020000000000548064B20
:100E20001B1AD90F01EBA301491002D0034B03B1E8
:100E300018477047E4060020E40600200000000088
:100E400010B5064C237843B9FFF7DAFF044B13B112
:100E50000448AFF300800123237010BDE406002096
:100E60000000000034CD000808B5054B1BB1054952
:100E70000548AFF30080BDE80840FFF7CFBF00BFD3
:100E800000000000E806002034CD000800B583B063
:100E90000A238DF804308DF805008DF806104FF008
:100EA000FF33032201A9034803F005FA03B05DF8FC
:100EB00004FB00BF0408002008B552211F20FFF7E3
:100EC000E5FF0A2001F0BCF808BD08B5FFF7F4FF04
:100ED00013212C20FFF7DAFF02212D20FFF7D6FF88
:100EE00008BD0000F0B585B006460D4614460B233C
:100EF0008DF80C300E238DF80D30134F4FF0FF336B
:100F0000022203A9384603F0D6F94FF0FF33062238
:100F100001A9384603F052FC9DF805209DF80430E5
:100F200043EA022333809DF807209DF8063043EA08
:100F300002232B809DF809209DF8083043EA022304
:100F4000238005B0F0BD00BF0408002010B582B0BA
:100F5000044601224FF480614FF0904001F038FACE
:100F600000224FF400614FF0904001F031FA8DF80B
:100F700004404FF4FA73012201A9064803F09BF9DB
:100F800001224FF400614FF0904001F021FA02B0CD
:100F900010BD00BFA007002010B582B0044600229B
:100FA0004FF480614FF0904001F012FA00224FF4AC
:100FB00000614FF0904001F00BFA8DF804404FF4BF
:100FC000FA73012201A9064803F075F901224FF4D2
:100FD00000614FF0904001F0FBF902B010BD00BF7E
:100FE000A007002008B501224FF400714FF0904097
:100FF00001F0EEF9642001F023F800224FF40071B3
:101000004FF0904001F0E4F9642001F019F801225A
:101010004FF400714FF0904001F0DAF9642001F0D4
:101020000FF808BD08B51120FFF7B6FF782001F0D2
:1010300007F82920FFF7B0FF142001F001F8FE2087
:10104000FFF7AAFFEF20FFF7A7FFB620FFF7A4FFE7
:101050000020FFF77BFF2020FFF778FF3620FFF707
:101060009BFF1820FFF772FF3A20FFF795FF05203E
:10107000FFF76CFFC320FFF78FFF1320FFF766FF1A
:10108000C420FFF789FF1320FFF760FFC920FFF797
:1010900083FF2220FFF75AFFF020FFF77DFF452056
:1010A000FFF754FF0920FFF751FF0820FFF74EFF1D
:1010B0000820FFF74BFF2620FFF748FF2A20FFF705
:1010C00045FFF120FFF768FF4320FFF73FFF702047
:1010D000FFF73CFF7220FFF739FF3620FFF736FF9E
:1010E0003720FFF733FF6F20FFF730FFF220FFF7C5
:1010F00053FF4520FFF72AFF0920FFF727FF0820AD
:10110000FFF724FF0820FFF721FF2620FFF71EFF2F
:101110002A20FFF71BFFF320FFF73EFF4320FFF7D6
:1011200015FF7020FFF712FF7220FFF70FFF362028
:10113000FFF70CFF3720FFF709FF6F20FFF706FFCF
:10114000CD20FFF729FF6320FFF700FF7020FFF796
:1011500023FF0720FFF7FAFE0720FFF7F7FE042022
:10116000FFF7F4FE0E20FFF7F1FE0F20FFF7EEFE73
:101170000920FFF7EBFE0720FFF7E8FE0820FFF746
:10118000E5FE0320FFF7E2FEE820FFF705FF34202D
:10119000FFF7DCFE6220FFF7FFFE1820FFF7D6FE08
:1011A0000D20FFF7D3FE7120FFF7D0FEED20FFF7F3
:1011B000CDFE7020FFF7CAFE7020FFF7C7FE182093
:1011C000FFF7C4FE0F20FFF7C1FE7120FFF7BEFE40
:1011D000EF20FFF7BBFE7020FFF7B8FE7020FFF78F
:1011E000B5FE6320FFF7D8FE1820FFF7AFFE1120F1
:1011F000FFF7ACFE7120FFF7A9FEF120FFF7A6FE76
:101200007020FFF7A3FE7020FFF7A0FE1820FFF765
:101210009DFE1320FFF79AFE7120FFF797FEF32043
:10122000FFF794FE7020FFF791FE7020FFF78EFE0F
:101230006420FFF7B1FE2820FFF788FE2920FFF782
:1012400085FEF120FFF782FE0120FFF77FFEF120EF
:10125000FFF77CFE0020FFF779FE0720FFF776FE00
:101260006620FFF799FE3C20FFF770FE0020FFF795
:101270006DFECD20FFF76AFE6720FFF767FE452071
:10128000FFF764FE4520FFF761FE1020FFF75EFECA
:101290000020FFF75BFE0020FFF758FE0020FFF75D
:1012A00055FE6720FFF778FE0020FFF74FFE3C2039
:1012B000FFF74CFE0020FFF749FE0020FFF746FE37
:1012C0000020FFF743FE0120FFF740FE5420FFF708
:1012D0003DFE1020FFF73AFE3220FFF737FE982040
:1012E000FFF734FE7420FFF757FE1020FFF72EFEA5
:1012F0008520FFF72BFE8020FFF728FE0020FFF758
:1013000025FE0020FFF722FE4E20FFF71FFE0020E3
:10131000FFF71CFE9820FFF73FFE3E20FFF716FE6A
:101320000720FFF713FE3520FFF736FE2120FFF7D9
:1013300033FEF620FFF730FEC820FFF707FEB0208F
:10134000FFF72AFE6120FFF701FE08BD08B5012264
:101350004FF480614FF0904001F03AF801224FF4D1
:1013600000614FF0904001F033F801224FF400711A
:101370004FF0904001F02CF8FFF734FEFFF752FEDB
:1013800008BD00002DE9F04188B003AD00240394AE
:101390000494059406940794324BDA6C42F00402EC
:1013A000DA64DA6C02F004020092009ADA6C42F01D
:1013B0000102DA64DA6C02F001020192019ADA6C3D
:1013C00042F00202DA64DB6C03F002030293029B38
:1013D000DFF8948022460721404600F0F9FF2246BC
:1013E00040F634614FF0904000F0F2FF1F4E22466D
:1013F0009321304600F0ECFF4FF4604303930494D4
:1014000005942946404600F0FBFE0723039301277D
:101410000497059406942946404600F0F1FE40F6F4
:101420003463039304970594069429464FF0904043
:1014300000F0E6FE9323039304970594069429464F
:10144000304600F0DDFE48F2600303934FF488134A
:10145000049305942946304600F0D2FE08B0BDE85A
:10146000F08100BF0010024000080048000400485E
:1014700000B583B001904FF6FF73012201A9034824
:1014800004F0CCFA019803B05DF804FB14090020C5
:1014900072B6FEE710B59AB000241694179418940B
:1014A00019941394149415940C940D940E940F9411
:1014B0001094119412942C22214601A804F000FFEC
:1014C0002D482E4B0360446084604FF6FF73C36069
:1014D00004614461846103F0B7FB00283FD14FF4FD
:1014E0008053169316A9244803F0F2FC002838D143
:1014F000214803F0D9FB002835D10023139314931E
:10150000159313A91C4803F063FD00282DD1602317
:101510000C9300220D920E920F9210921192129241
:101520000CA9154803F02AFC08BB00230193029381
:101530000393049305934FF4005206920793089384
:101540004FF0007209920A930B9301A90A4803F025
:1015500077FD70B9084800F045FC1AB010BDFFF7E0
:1015600097FFFFF795FFFFF793FFFFF791FFFFF757
:101570008FFFFFF78DFF00BF54070020002C0140B4
:1015800000B58BB000230793089309930093019350
:101590000293039304930593069316484FF08042F9
:1015A0000260436083604FF0FF32C2600361836179
:1015B00003F07AFBC0B900230793099307A90D48EC
:1015C00003F006FD90B9602300930022019202927D
:1015D00004926946074803F0D1FB48B9054800F07A
:1015E00001FC0BB05DF804FBFFF752FFFFF750FF63
:1015F000FFF74EFF0807002008B50B480B4B0360B0
:101600004FF41653436000238360C36003610C22D0
:1016100042618361C3610362436204F0C6FA00B9A8
:1016200008BDFFF735FF00BF8C08002000480040D0
:1016300008B51148114B0360114B436000238360D0
:101640000122C260036143618361C361036201F0EF
:101650006EF850B90021084801F060FA38B900214D
:10166000054801F088FA20B908BDFFF711FFFFF720
:101670000FFFFFF70DFF00BF9C090020005800403E
:10168000E49CD11008B50A480A4B03604FF4E133DB
:10169000436000238360C36003610C224261836165
:1016A0000362436204F081FA00B908BDFFF7F0FE5F
:1016B000140900200080004008B50F480F4B03605C
:1016C0004FF482734360002383604FF4E062C26092
:1016D000036143614FF400728261C361036243623C
:1016E00083620722C26203630823436302F074FD2E
:1016F00000B908BDFFF7CCFE04080020003001400F
:1017000008B50F480F4B03604FF48273436000230A
:1017100083604FF44072C260036143614FF4007212
:101720008261C3610362436283620722C262036310
:101730000823436302F050FD00B908BDFFF7A8FE7F
:10174000A0070020003C004010B592B000240D948A
:101750000E940F94109411940C942C22214601A8FD
:1017600004F0AEFD2C482D4B0360402343607F23E3
:101770008360FF23C360046144618461C46102F03B
:1017800001FA00283FD101238DF8343000228DF872
:1017900035208DF836208DF83720109211920DA942
:1017A0001D4802F04DFA80BB01238DF830308DF8D2
:1017B00031308DF8323000228DF833200CA91648D4
:1017C00002F0A4FA18BB01238DF8043000228DF832
:1017D00005208DF8062002928DF8072004920592CC
:1017E0004FF0803106914FF0E061089109928DF839
:1017F00028304FF480730B9301A9074802F0D8FA00
:1018000038B912B010BDFFF743FEFFF741FEFFF7F6
:101810003FFEFFF73DFE00BF6808002000280040A3
:1018200000B597B04422002105A804F049FD00232B
:10183000009301930293039304934FF4007001F01B
:10184000CDF930BB1823059301230A930B93002293
:101850000C9260220D9202220F9210931193282372
:101860001293072313931492159205A801F09AFA84
:1018700088B90F230093032301930023029303935A
:1018800004930421684601F0C3FD30B917B05DF838
:1018900004FBFFF7FDFDFFF7FBFDFFF7F9FD00007F
:1018A00000B583B000F0AAFBFFF7BAFFFFF76AFDAF
:1018B000FFF7F0FDFFF764FEFFF79EFEFFF7B8FEAF
:1018C000FFF7E0FEFFF7F8FEFFF71AFFFFF73CFF18
:1018D00000F0A1F801220A490A4804F001FAFFF7D2
:1018E00035FDFFF7F2FA0DF1060201A90DF1020034
:1018F000FFF7F8FA01220449044804F0F1F9F2E78D
:101900000407002014090020000700208C08002094
:1019100030B585B00C468DF80F004FF0FF330093C3
:1019200001230DF10F02AE21124800F065FF58B9F6
:101930004FF0FF33009301232246AE210D4801F002
:101940002DF860B905B030BD9DF80F50094801F081
:10195000E3F802462946084804F056FCE8E79DF8FB
:101960000F40044801F0D8F802462146024804F02E
:101970004BFCE7E79C09002050CD000810B584B06F
:1019800004468DF80C008DF80D104FF0FF330093D6
:10199000022303AAAE21074800F02EFF08B904B0C5
:1019A00010BD044801F0B8F802462146024804F090
:1019B0002BFCF4E79C09002050CD000870B582B0E4
:1019C00005460C4616460DF10701FFF7A1FF9DF8ED
:1019D000073004EA03018DF8071031432846FFF76A
:1019E000CDFF02B070BD00B583B04022BF210920F9
:1019F000FFF7E4FF0DF107010920FFF789FF4FF41E
:101A0000FA7000F01DFB9DF8073013F0400FF1D184
:101A100003B05DF804FB08B5FFF7E5FF60221F2166
:101A20000820FFF7CBFF1022EF210820FFF7C6FFA9
:101A30000722F8210920FFF7C1FF20229F210A2059
:101A4000FFF7BCFF0822E3210A20FFF7B7FF0322BC
:101A5000FC210A20FFF7B2FF1F210C20FFF78EFFA9
:101A60001F210D20FFF78AFF0122F8211120FFF727
:101A7000A5FF20228F211120FFF7A0FF00210420C5
:101A8000FFF77CFF00210520FFF778FF00210620EB
:101A9000FFF774FF08BD000082B00A4B1A6E42F0D7
:101AA00001021A661A6E02F001020092009A9A6D03
:101AB00042F080529A659B6D03F080530193019B25
:101AC00002B070470010024010B5A0B004460021DB
:101AD0001B911C911D911E911F91602203A804F07F
:101AE000EFFB2268184B9A4201D020B010BD802332
:101AF000039303A801F032FE10BB144CE36C43F0D7
:101B00000203E364E36C03F002030193019B4FF4CF
:101B1000C0431B9312231C9300231D9303231E9386
:101B200004231F931BA90A4800F06AFBA36D43F42A
:101B30008003A365A36D03F480030293029BD4E7A3
:101B4000FFF7A6FCD9E700BF005800400010024094
:101B5000000400482DE9F041A2B0044600211D9187
:101B60001E911F9120912191602205A804F0A8FBED
:101B70002368404A934205D03F4A934246D022B060
:101B8000BDE8F0812023059305A801F0E7FD0028BA
:101B900039D13A4BDA6D42F00102DA65DA6D02F0C2
:101BA00001020092009ADA6C42F00102DA64DA6C07
:101BB00002F001020192019ADA6C42F00202DA6448
:101BC000DB6C03F002030293029B08241D944FF088
:101BD0000208CDF8788000271F97032620962194CD
:101BE0001DAD29464FF0904000F00AFB4FF4006312
:101BF0001D93CDF878801F97209621942946204880
:101C000000F0FEFABBE7FFF743FCC2E704230593AD
:101C100005A801F0A3FD48BB184B9A6D42F4802241
:101C20009A659A6D02F480220392039ADA6C42F06C
:101C30000402DA64DB6C03F004030493049B302396
:101C40001D9302231E9300241F9403232093072334
:101C500021931DA90B4800F0D3FA224621462720E4
:101C600000F056FA272000F063FA88E7FFF710FC2F
:101C7000D2E700BF00800040004800400010024052
:101C8000000400480008004810B598B004466022DF
:101C90000021684604F014FB22680D4B9A4201D0E3
:101CA00018B010BD4FF4003300934FF40073179336
:101CB000684601F053FD38B9064AD2F8903043F433
:101CC0000043C2F89030EBE7FFF7E2FBF4E700BF18
:101CD000002800400010024000B58BB0002305939F
:101CE00006930793089309930368254A934205D006
:101CF000244A934223D00BB05DF804FB224B1A6EAA
:101D000042F480521A661A6E02F480520192019ACD
:101D1000DA6C42F00102DA64DB6C03F00103029337
:101D2000029BC223059302230693032308930523F2
:101D3000099305A94FF0904000F062FADBE7124BDF
:101D40009A6D42F400429A659A6D02F40042039241
:101D5000039ADA6C42F00402DA64DB6C03F00403E9
:101D60000493049B4FF4E05305930223069303234B
:101D700008930623099305A9044800F041FABAE73D
:101D800000300140003C00400010024000080048C4
:101D90000268094B9A4200D0704782B003F5644351
:101DA0001A6E42F400621A661B6E03F4006301931C
:101DB000019B02B0704700BF002C01400368B3F1E3
:101DC000804F00D0704782B003F504339A6D42F023
:101DD00001029A659B6D03F001030193019B02B020
:101DE0007047000000B589B0002303930493059366
:101DF0000693079303681B4A934205D0B3F1804FC3
:101E000019D009B05DF804FB174BDA6C42F00102FF
:101E1000DA64DB6C03F001030193019B4FF48073E0
:101E20000393022304930123079303A94FF09040E7
:101E300000F0E6F9E5E703F50433DA6C42F001025D
:101E4000DA64DB6C03F001030293029B012303932A
:101E500002220492079303A94FF0904000F0D0F9BA
:101E6000CFE700BF002C014000100240FEE7FEE774
:101E7000FEE7FEE7FEE770477047704708B500F0E1
:101E800070F900F0CBF808BD08B5024803F064F91A
:101E900008BD00BF8C0800200120704708B504F081
:101EA000B1FA162303604FF0FF3008BD08B54FF0BC
:101EB000FF31FFF7F3FFFEE770B50C46164600252D
:101EC00006E0AFF30080214601F8010B01350C4616
:101ED000B542F6DB304670BD70B50C46164600259F
:101EE00004E014F8010BFFF7C3FA0135B542F8DB43
:101EF000304670BD4FF0FF3070474FF400534B60D9
:101F000000207047012070470020704710B503463D
:101F10000C4A0D490D48006840B10C480068034464
:101F2000521A934206D8094A136010BD0748084C5C
:101F30000460F2E704F066FA0C2303604FF0FF3010
:101F4000F3E700BF00C0002000040000F0090020FB
:101F5000100D002070470000DFF834D0FFF7FAFFC3
:101F60000C480D490D4A002302E0D458C4500433F4
:101F7000C4188C42F9D30A4A0A4C002301E01360CA
:101F80000432A242FBD304F043FAFFF789FCFEE7D8
:101F900000C0002000000020E4060020C0D100089E
:101FA000E40600200C0D0020FEE70000104B1B781B
:101FB0000BB90120704710B504464FF47A70B0FB9E
:101FC000F3F30C4A1068B0FBF3F000F0B5F868B911
:101FD0000F2C01D901200AE0002221464FF0FF30EA
:101FE00000F096F8044B1C60002000E0012010BDBA
:101FF00004000020000000200800002010B503208D
:1020000000F074F80F20FFF7D1FF10B10124204633
:1020100010BD0446FFF740FDF9E70000034B1B78B5
:10202000034A11680B441360704700BF040000208E
:10203000F4090020014B1868704700BFF409002024
:1020400038B50446FFF7F6FF0546B4F1FF3F02D06E
:10205000044B1B781C44FFF7EDFF401BA042FAD352
:1020600038BD00BF04000020002807DB00F01F027D
:10207000400901239340024A42F82030704700BFD4
:1020800000E100E0002808DB0901C9B200F160406E
:1020900000F5614080F80013704700F00F0009015F
:1020A000C9B2014B1954704714ED00E000B500F0BF
:1020B0000700C0F1070CBCF1040F28BF4FF0040C5F
:1020C000031D062B0FD9C31E4FF0FF3E0EFA0CF076
:1020D00021EA000199400EFA03FE22EA0E0241EACB
:1020E00002005DF804FB0023EEE70000074AD36816
:1020F00023F4E0631B041B0C000200F4E0600343C4
:1021000043F0BF6343F40033D360704700ED00E059
:1021100010B50446054BD868C0F30220FFF7C6FF90
:1021200001462046FFF7AEFF10BD00BF00ED00E006
:1021300008B5FFF799FF08BD0138B0F1807F0BD2D9
:102140004FF0E0235861054AF02182F82310002067
:10215000986107221A6170470120704700ED00E086
:10216000704708B5FFF7FCFF08BD90F82530022B3B
:1021700006D00423C363002380F824300120704775
:102180000268136823F00E0313600268136823F0DB
:1021900001031360436C03F01C03016C012202FA7B
:1021A00003F34B6080F82520002380F82430184684
:1021B000704708B590F82530022B03D00423C36381
:1021C000012008BD0268136823F00E031360026843
:1021D000136823F001031360436C03F01C03016CCC
:1021E000012202FA03F34B6080F82520002380F8D7
:1021F0002430836B13B198470020E2E70020E0E72A
:1022000070B582B0002365E085685E000324B440A9
:1022100025EA0405CC68B4402C438460456825EA6F
:102220000C054C68C4F300149C402C43446062E0ED
:10223000DD08083550F8254003F0070C4FEA8C0CF8
:102240004FF00F0E0EFA0CFE24EA0E0E0C6904FA83
:102250000CF444EA0E0440F8254063E0042400E056
:10226000002404FA0EF42C430CF1020C544D45F8F2
:102270002C40544CA568D44325EA0206D1F804C08A
:102280001CF4801F01D042EA05064E4DAE60ED6899
:1022900004EA0506D1F804C01CF4001F01D042EA8C
:1022A0000506484DEE606D6804EA0506D1F804C0E5
:1022B0001CF4003F01D042EA0506424D6E602D68D5
:1022C0002C404E6816F4803F01D042EA05043D4A96
:1022D000146001330A6832FA03F46ED04FF0010C37
:1022E0000CFA03FC1CEA0202F3D04C6804F003046D
:1022F000013C012C88D94C6804F00304032C0CD059
:10230000C4685D004FF0030C0CFA05FC24EA0C0CC9
:102310008C68AC4044EA0C04C4604C6804F00304CC
:10232000022C85D004684FEA430E4FF0030C0CFAE0
:102330000EFC24EA0C0C4C6804F0030404FA0EF4BE
:1023400044EA0C0404604C6814F4403FC1D01E4CB5
:10235000256E45F001052566246E04F00104019404
:10236000019C4FEA930C0CF10205154C54F82550D2
:1023700003F0030E4FEA8E0E0F2404FA0EF425EA42
:102380000405B0F1904F3FF46BAF104CA0420ED05B
:1023900004F58064A0420CD004F58064A0420AD009
:1023A00004F58064A0423FF459AF072459E70124A3
:1023B00057E7022455E7032453E702B070BD00BF7E
:1023C00000000140000401400010024000040048E9
:1023D0000AB1816170478162704703689A6912F09F
:1023E000020F01D000229A6203689A6912F0010F6D
:1023F00003D19A6942F001029A61704710B4019CBE
:10240000C1F3090141EA02411943214321F000418E
:1024100002685368640D04F4806444F07F7444F4EB
:10242000583444F47F7444F0030423EA04030B4358
:10243000536010BC70472DE9F041044603689E6963
:1024400016F010067CD00D4690461022DA61002668
:1024500037462368986910F0200F30D17FBBB5F163
:10246000FF3FF6D0FFF7E6FDA0EB0800A84201D839
:10247000002DEED121684B6803F4804394F842208C
:10248000D2B2886910F4004F02D00BB9202A0ED1C5
:1024900023689B6913F0200FDBD1FFF7CBFDA0EB86
:1024A00008001928F4D946F020060127D1E74B6827
:1024B00043F480434B60FFF7BDFD8046E8E70FB96A
:1024C0002022DA6146F0040601252268936913F49C
:1024D000807F05D046F001064FF48071D16101255F
:1024E00013F4806F06D046F0080622684FF480612E
:1024F000D161012513F4007F24D046F00206236841
:102500004FF40072DA6101252046FFF766FF22686A
:10251000536823F0FF7323F48B3323F4FF7323F00A
:1025200001035360636C33436364202384F84130B8
:10253000002384F8423084F840302846BDE8F0811A
:102540000025C2E7002DF8D0DEE770B504460D4641
:10255000164623689B6913F0020F22D132462946A2
:102560002046FFF768FFF0B9B5F1FF3FF1D0FFF764
:1025700061FD801BA84201D8002DEAD123689B6928
:1025800013F0020FE5D1636C43F020036364202352
:1025900084F84130002384F8423084F84030012030
:1025A00000E0002070BD0120FCE72DE9F84305465E
:1025B000884617461E46DDF820902B689C6938EA4D
:1025C00004040CBF01230023BB4227D14A463146F5
:1025D0002846FFF730FF20BBB6F1FF3FEDD0FFF7F5
:1025E00029FDA0EB0900B04201D8002EE5D12B68EF
:1025F0009B6938EA03030CBF01230023BB42DCD1F3
:102600006B6C43F020036B64202385F8413000237A
:1026100085F8423085F84030012000E00020BDE818
:10262000F8830120FBE770B504460D46164604E02A
:1026300023689B6913F0200F12D023689B6913F065
:10264000200F1BD1324629462046FFF7F4FEB8B9C9
:10265000FFF7F0FC801BA842EAD8002DEDD1E7E798
:10266000636C43F020036364202384F8413000232B
:1026700084F8423084F84030012000E0002070BD32
:102680000120FCE7F8B504460E461746002518E081
:1026900000236364FFF7CEFCC01BB04200D886B9AC
:1026A0007DB923689B6913F0040F0AD1636C43F072
:1026B00020036364202384F84130002384F84030F1
:1026C000012523689B6913F0040F2ED16DBB3A4698
:1026D00031462046FFF7AFFE00B1012523689A6915
:1026E00012F0200FD6D0002DD4D19A699A6912F039
:1026F000100FCDD01022DA610423636423682022F6
:10270000DA6121684B6823F0FF7323F48B3323F4E1
:10271000FF7323F001034B6084F84120002384F809
:10272000423084F840300125B4E72846F8BD00283F
:102730005FD010B5044690F84130002B48D02423D8
:1027400084F841302268136823F001031360636842
:10275000226823F0706313612268936823F40043B6
:102760009360E368012B38D0A368226843F40443E4
:102770009360E368022B36D02268536823F4006329
:1027800053602268536843F0007343F4004353607E
:102790002268D36823F40043D3602369626913433A
:1027A000A169226843EA0123D360E369216A2268B0
:1027B0000B4313602268136843F001031360002089
:1027C0006064202384F84130206384F8420010BD07
:1027D00080F84030FFF778F9B1E7A368226843F446
:1027E00000439360C5E72268536843F40063536075
:1027F000C7E70120704700002DE9F04782B00F467F
:102800000A9E90F84110202940F0B7800446914676
:10281000984690F84030012B00F0B3804FF0010A49
:1028200080F840A0FFF706FC0546009019235246A9
:102830004FF400412046FFF7B8FE002840F0A38087
:10284000212384F84130102384F84230002363644C
:10285000C4F82490A4F82A806363638D9BB2FF2B95
:102860001ED9FF2323854FF08073228DEAB12268A1
:1028700099F800109162626A01326262628D92B2CE
:10288000013A92B26285228D013A92B222850132DA
:1028900041490091D2B239462046FFF7AFFD18E01A
:1028A000638D23854FF00073DFE73B490091D2B27F
:1028B00039462046FFF7A2FD0BE0628D92B22285D9
:1028C000002300934FF00073D2B239462046FFF741
:1028D00095FD638D9BB2002B33D02A4631462046AE
:1028E000FFF733FE002850D1626A236812789A629B
:1028F000636A01336362638D9BB2013B9BB2638564
:10290000238D013B9BB22385628D92B2002AE0D0D9
:10291000002BDED100953346002280212046FFF7B0
:1029200044FEA0BB638D9BB2FF2BC6D9FF2222853C
:10293000002300934FF0807339462046FFF75EFD79
:10294000C7E72A4631462046FFF76DFE08BB2368DD
:102950002022DA6121684B6823F0FF7323F48B3364
:1029600023F4FF7323F001034B6084F8412000231C
:1029700084F8423084F8403000E0022002B0BDE824
:10298000F0870220FAE70120F8E70120F6E70120AE
:10299000F4E70120F2E700BF002000802DE9F047B6
:1029A00082B00F460A9E90F84110202940F0A38083
:1029B00004469146984690F84030012B00F09F80E5
:1029C0004FF0010A80F840A0FFF734FB0546009065
:1029D000192352464FF400412046FFF7E6FD002838
:1029E00040F08F80222384F84130102384F8423055
:1029F00000236364C4F82490A4F82A806363638D81
:102A00009BB2FF2B0BD95246A4F828A0414B009350
:102A10004FF0807339462046FFF7F0FC18E0628DD6
:102A200092B222853B4B00934FF00073D2B23946ED
:102A30002046FFF7E3FC0BE0628D92B22285002373
:102A400000934FF00073D2B239462046FFF7D6FC10
:102A5000638D9BB2002B32D02A4631462046FFF7C9
:102A600011FE00284FD123685A6A636A1A70636A9C
:102A700001336362228D013A92B22285638D9BB24B
:102A8000013B9BB26385638D9BB2002BE0D0002A93
:102A9000DED10095334680212046FFF786FDA0BB9E
:102AA000638D9BB2FF2BC7D9FF22228500230093A1
:102AB0004FF0807339462046FFF7A0FCC8E72A464E
:102AC00031462046FFF7AFFD08BB23682022DA61BC
:102AD00021684B6823F0FF7323F48B3323F4FF73D7
:102AE00023F001034B6084F84120002384F8423036
:102AF00084F8403000E0022002B0BDE8F0870220F8
:102B0000FAE70120F8E70120F6E70120F4E70120C9
:102B1000F2E700BF00240080406C7047034690F845
:102B20004120202A23D190F84020012A21D00122DF
:102B300080F84020242280F841200068026822F0BA
:102B4000010202601868026822F48052026018686C
:102B500002680A43026019680A6842F001020A60CA
:102B6000202283F84120002083F840007047022093
:102B7000704702207047034690F84120202A21D157
:102B800090F84020012A1FD0012280F84020242202
:102B900080F841200068026822F001020260186893
:102BA000026822F4706242EA0122026019680A682F
:102BB00042F001020A60202283F84120002083F8BD
:102BC000400070470220704702207047024B18688F
:102BD00000F4C060704700BF00700040B0F5007F97
:102BE0000FD01F4B1B6803F4C063B3F5806F34D064
:102BF0001B4A136823F4C06343F48063136000200E
:102C00007047174B1B6803F4C063B3F5007F20D0F7
:102C1000134A136823F4C06343F400731360114B29
:102C20001B68322202FB03F30F4AA2FB03239B0C17
:102C3000013300E0013B0A4A526912F4806F01D06F
:102C4000002BF7D1064B5B6913F4806F03D1002092
:102C5000704700207047032070470020704700BF76
:102C6000007000400000002083DE1B4330B583B0BD
:102C70000446204B9B6D13F0805F0BD0FFF7A6FF3F
:102C8000B0F5007F17D0802C1FD82DD0702C2DD000
:102C900000211BE0174DAB6D43F08053AB65AB6D6E
:102CA00003F080530193019BFFF790FFAB6D23F07E
:102CB0008053AB65E4E7802C03D9A02C03D9022113
:102CC00004E0002102E0012100E003210A4A136828
:102CD00023F007030B431360136803F007038B42D1
:102CE00006D1002003B030BD0221EFE70121EDE75E
:102CF0000120F7E70010024000200240254A9368B7
:102D0000D26802F0030213F00C0309D00C2B05D09B
:102D1000042B3BD0082B3BD000200FE0012AF7D139
:102D20001C4A126812F0080F0CD11A4AD2F89420EB
:102D3000C2F30322184951F8220013B10C2B06D01C
:102D400000207047134A1268C2F30312F2E7114BD6
:102D5000DB6803F00303022B16D0032B00D10F48CE
:102D60000C49CA68C2F302120132CB68C3F30623CE
:102D700000FB03F3B3FBF2F3C868C0F3416001301A
:102D80004000B3FBF0F070470548E9E7044870479E
:102D9000024870470010024020CF000800127A005D
:102DA0000024F400002800F01C83F0B583B0044632
:102DB000964B9D6805F00C05DE6806F00306036877
:102DC00013F0100F5AD0E5B10C2D18D0A369002BC9
:102DD00000F0BB808D4A136843F001031360FFF7D6
:102DE00029F90746894B1B6813F0020F40F09A80BF
:102DF000FFF720F9C01B0228F4D90320FCE2012EC2
:102E0000E4D1824B1B6813F0020F03D0A369002B9F
:102E100000F0E982206A7D4B1B6813F0080F5BD03D
:102E20007A4B1B6803F0F00398425CD8774B1A6822
:102E300042F008021A601A6822F0F002216A0A437E
:102E40001A605A6822F47F42E16942EA01225A601C
:102E5000002D60D0FFF752FF6C4B9B68C3F3031348
:102E60006B4AD35C03F01F03D8406A4B18606A4B6F
:102E70001868FFF79BF8002840F0BE82236813F023
:102E8000010F00F08180082D75D00C2D71D0636882
:102E9000B3F5803F00F09780B3F5A02F00F0998044
:102EA0005A4B1A6822F480321A601A6822F480227F
:102EB0001A606368002B00F09980FFF7BBF80746A3
:102EC000524B1B6813F4003F5ED1FFF7B3F8C01BF1
:102ED0006428F5D903208FE24C4BD3F894301B09BA
:102EE00003F0F003A0E7FFF7C1FE002840F07D8269
:102EF000464B1A6842F008021A601A6822F0F00283
:102F0000216A0A431A605A6822F47F42E16942EA60
:102F100001225A609EE7206AFFF7A8FE002899D098
:102F2000012069E2394B1A6842F008021A601A68F7
:102F300022F0F002216A0A431A605A6822F47F42A2
:102F4000E16942EA01225A6098E7304A136823F0A7
:102F500001031360FFF76EF807462C4B1B6813F054
:102F6000020F8BD0FFF766F8C01B0228F5D90320AB
:102F700042E2032E8BD1254B1B6813F4003F03D094
:102F80006368002B00F03382236813F0020F58D0DF
:102F9000042D45D00C2D41D0E368002B77D01B4A7F
:102FA000136843F480731360FFF744F80646174B29
:102FB0001B6813F4806F61D1FFF73CF8801B022877
:102FC000F5D9032018E2114A136843F480331360E3
:102FD0006FE703F18043A3F53C331A6842F4802283
:102FE0001A601A6842F480321A6062E7FFF722F82A
:102FF0000746064B1B6813F4003FC5D0FFF71AF8CD
:10300000C01B6428F5D90320F6E100BF0010024080
:1030100058CF00080000002008000020022EBBD17D
:10302000A44B1B6813F4806F03D0E368002B00F0FF
:10303000E081A04A536823F0F853216943EA016311
:103040005360236813F0080F4CD063699BB3994A0F
:10305000D2F8943043F00103C2F89430FEF7EAFF4F
:103060000646944BD3F8943013F0020F3AD1FEF792
:10307000E1FF801B0228F4D90320BDE18D4A53688B
:1030800023F0F853216943EA01635360D9E7894A81
:10309000136823F480731360FEF7CCFF0646854B5C
:1030A0001B6813F4806FCCD0FEF7C4FF801B02288E
:1030B000F5D90320A0E17F4AD2F8943023F0010330
:1030C000C2F89430FEF7B6FF06467A4BD3F8943038
:1030D00013F0020F06D0FEF7ADFF801B0228F4D9D3
:1030E000032089E1236813F0040F7AD0714B9B6DA4
:1030F00013F0805F36D16F4B9A6D42F080529A6523
:103100009B6D03F080530193019B01266A4B1B6862
:1031100013F4807F28D0A368012B39D0052B3FD032
:10312000644BD3F8902022F00102C3F89020D3F82A
:10313000902022F00402C3F89020A368002B3DD019
:10314000FEF778FF07465B4BD3F8903013F0020F81
:1031500046D1FEF76FFFC01B41F288339842F2D987
:10316000032049E10026D1E7534A136843F48073F2
:103170001360FEF75FFF07464F4B1B6813F4807F19
:10318000C9D1FEF757FFC01B0228F5D9032033E150
:10319000484AD2F8903043F00103C2F89030CCE7AF
:1031A000444BD3F8902042F00402C3F89020D3F8A7
:1031B000902042F00102C3F89020BEE7FEF73AFFEC
:1031C00007463C4BD3F8903013F0020F08D0FEF7BF
:1031D00031FFC01B41F288339842F2D903200BE142
:1031E000E6B9236813F0200F35D0636AE3B1314AA2
:1031F000D2F8983043F00103C2F89830FEF71AFF76
:1032000006462C4BD3F8983013F0020F23D1FEF76B
:1032100011FF801B0228F4D90320EDE0254A936DAD
:1032200023F080539365DCE7224AD2F8983023F0EC
:103230000103C2F89830FEF7FDFE06461D4BD3F899
:10324000983013F0020F06D0FEF7F4FE801B022820
:10325000F4D90320D0E0A36A002B00F0CC80022B2D
:1032600017D00C2D00F0CC80124A136823F0807325
:103270001360FEF7DFFE04460E4B1B6813F0007F61
:1032800000F0A880FEF7D6FE001B0228F4D9032028
:10329000B2E0084BDB6803F00301E26A91420DD013
:1032A0000C2D00F0AB80034B1B6813F0806F2FD008
:1032B0000120A1E0001002400070004003F0700205
:1032C000216B0139B2EB011FEAD103F4FE42616BBD
:1032D000B2EB012FE4D103F07842A16BB2EBC16FE6
:1032E000DED103F4C001E26B5208013AB1EB425F58
:1032F000D6D103F0C063226C5208013AB3EB426F9F
:10330000CED1404B1B6813F0007F49D0002073E002
:103310003C4A136823F080731360FEF78BFE05466A
:10332000384B1B6813F0007F06D0FEF783FE401B6E
:103330000228F5D903205FE0324AD36832491940A8
:10334000E36A206B013843EA0013606B43EA002311
:10335000E06B4008013843EA4053206C40080138D4
:1033600043EA4063A06B43EAC0631943D16013682A
:1033700043F080731360D36843F08073D360FEF72B
:1033800059FE04461F4B1B6813F0007F06D1FEF761
:1033900051FE001B0228F5D903202DE000202BE070
:1033A000184B1A6842F080721A60DA6842F0807234
:1033B000DA60FEF73FFE0446124B1B6813F0007FF5
:1033C00006D1FEF737FE031B022BF5D9032013E0CD
:1033D000002011E00B4AD1680C4B0B40D360002059
:1033E0000AE001207047012006E0012004E00120EE
:1033F00002E0012000E0002003B0F0BD0120FBE767
:103400000120F9E7001002408C809D01FCFFEEFED8
:10341000002800F0AF8070B50D460446594B1B687C
:1034200003F007038B420BD2564A136823F00703BD
:103430000B431360136803F007038B4240F09C803A
:10344000236813F0020F0CD0A2684F4B9B6803F067
:10345000F0039A4205D94C498B6823F0F0031A43D4
:103460008A60236813F0010F39D06368032B09D0F9
:10347000022B26D063BB444A126812F0020F06D119
:10348000012076E0404A126812F0007F76D03E4973
:103490008A6822F0030213438B60FEF7CBFD0646D9
:1034A000394B9B6803F00C036268B3EB820F16D0B4
:1034B000FEF7C0FD801B41F288339842F0D903200B
:1034C00057E0314A126812F4003FE0D1012050E089
:1034D0002D4A126812F4806FD9D1012049E0236887
:1034E00013F0020F0CD0A268274B9B6803F0F00387
:1034F0009A4205D224498B6823F0F0031A438A606C
:10350000204B1B6803F00703AB420AD91D4A13681E
:1035100023F007032B431360136803F00703AB4248
:103520002ED1236813F0040F06D0174A936823F4B2
:10353000E063E1680B439360236813F0080F07D042
:10354000114A936823F46053216943EAC1039360ED
:10355000FFF7D4FB0C4B9B68C3F303130B4AD35CFC
:1035600003F01F03D8400A4B18600A4B1868FEF797
:103570001DFD70BD012070470120FAE70120F8E72A
:103580000120F6E7002002400010024058CF00085A
:103590000000002008000020014B1868704700BFA1
:1035A0000000002008B5FFF7F7FF054B9B68C3F349
:1035B0000223044AD35C03F01F03D84008BD00BFB8
:1035C0000010024050CF000808B5FFF7E5FF054B9B
:1035D0009B68C3F3C223044AD35C03F01F03D840A3
:1035E00008BD00BF0010024050CF0008F8B50446E7
:1035F0000D46594BDB6813F0030F18D0564BDB68B0
:1036000003F003030268934202D001263046F8BD5E
:10361000002A00F09C80504BDB68C3F30213013397
:103620004268934201D00126F0E7002619E00368C2
:10363000022B55D0032B5AD0012B40F08A80464AEA
:10364000126812F0020F5ED04348C26822F0730283
:103650006168013943EA01131343C3600026002E59
:10366000D4D13D4A136823F080631360FEF7E2FC77
:103670000746394B1B6813F0006F05D0FEF7DAFCE4
:10368000C31B022BF5D90326002EBFD1002D3CD140
:1036900031490B6923F0784323F4FE43A068E268C4
:1036A000D20642EA002213430B612B4A136843F00F
:1036B00080631360FEF7BEFC0546274B1B6813F0C2
:1036C000006F05D1FEF7B6FC401B0228F5D9032692
:1036D000002E9BD1204A1369A1690B43136195E722
:1036E0001D4A126812F4806FAED101268EE71A4A85
:1036F000126812F4003FA7D1174A126812F4802F03
:10370000A2D1012682E70126A9E7012D0FD0124898
:10371000026922F0C06222F4FE42A16863695B087C
:10372000013B5B0643EA01231A430261BDE70A48F5
:10373000026922F4C00222F4FE42A16823695B08F8
:10374000013B5B0543EA01231A430261ADE7012611
:103750005CE701265AE700BF001002402DE9F04166
:1037600082B00446036813F4006F26D0436CB3F5AF
:10377000000F06D0B3F5400F1DD09BB10126374690
:103780001DE0B14AD36843F48033D3600027AE4ACA
:10379000D2F8883023F44003616C0B43C2F88830C0
:1037A00000260CE000210430FFF720FF0746002828
:1037B000EDD0064603E00027E9E7002637462368F8
:1037C00013F4003F6BD0A04B9B6D13F0805F4CD186
:1037D0009D4B9A6D42F080529A659B6D03F0805329
:1037E0000193019B4FF00108984A136843F48073DA
:1037F0001360FEF71FFC0546944B1B6813F4807F93
:1038000005D1FEF717FC401B0228F5D90327002F2E
:1038100040D18D4BD3F8903013F4407318D0E26D43
:103820009A4212D0884AD2F8903023F44073D2F8EA
:10383000901041F48031C2F89010D2F8901021F429
:103840008031C2F89010C2F8903013F0010F0FD100
:10385000002F40F0F7807C4AD2F8903023F4407378
:10386000E16D0B43C2F8903015E04FF00008BBE764
:10387000FEF7E0FB0546744BD3F8903013F0020FCF
:10388000E6D1FEF7D7FB401B41F288339842F2D9CC
:103890000327DDE73E46B8F1000F40F0D9802368EA
:1038A00013F0010F08D0684AD2F8883023F00303E0
:1038B000216A0B43C2F88830236813F0020F08D046
:1038C000614AD2F8883023F00C03616A0B43C2F8D6
:1038D0008830236813F0040F08D05B4AD2F8883090
:1038E00023F03003A16A0B43C2F88830236813F039
:1038F000200F08D0544AD2F8883023F44063E16A9C
:103900000B43C2F88830236813F4007F08D04E4A76
:10391000D2F8883023F44023E16B0B43C2F888309F
:10392000236813F4806F08D0474AD2F8883023F414
:103930004013216C0B43C2F88830236813F0400F0A
:1039400008D0414AD2F8883023F44053216B0B430E
:10395000C2F88830236813F0800F08D03A4AD2F8B2
:10396000883023F44043616B0B43C2F888302368EE
:1039700013F4807F08D0344AD2F8883023F44033DF
:10398000A16B0B43C2F88830236813F4005F0FD09B
:103990002D4AD2F8883023F04063A16C0B43C2F863
:1039A0008830A36CB3F1006F58D0B3F1806F5AD058
:1039B000236813F4002F0FD0234AD2F8883023F065
:1039C0004063E16C0B43C2F88830E36CB3F1006FE5
:1039D00051D0B3F1806F53D0236813F4802F0FD0F0
:1039E000194AD2F8883023F04063216D0B43C2F8A6
:1039F0008830236DB3F1006F4AD0B3F1806F4CD0A3
:103A0000236813F4804F0CD00F4AD2F8883023F08B
:103A10004053616D0B43C2F88830636DB3F1805F32
:103A200043D0236813F4004F08D0074AD2F88830F7
:103A300023F08043A16D0B43C2F88830304602B0BA
:103A4000BDE8F0813E4626E70010024000700040CD
:103A50001A4A936D23F08053936520E7D36843F4AB
:103A60008013D360A4E70121201DFFF7BFFD0028CC
:103A70009ED006469CE7D36843F48013D360ABE73F
:103A80000121201DFFF7B2FD0028A5D00646A3E7BF
:103A9000D36843F48013D360B2E70121201DFFF700
:103AA000A5FD0028ACD00646AAE70221201DFFF79D
:103AB0009DFD0028B5D00646B3E700BF00100240C8
:103AC00038B5044603680A4ADA60FEF7B3FA0546D9
:103AD0002368DB6813F0200F07D1FEF7ABFA401B19
:103AE000B0F57A7FF4D9032000E0002038BD00BF94
:103AF0005FFF030070B50368DA6812F0400F02D070
:103B00000025284670BD04464FF0FF32DA60FEF70C
:103B100091FA064600252368DB6813F0400FF0D1C8
:103B2000032DEED0FEF786FA831BB3F57A7FF2D928
:103B3000032584F82150EEE710B50446104BDA68EF
:103B400022F08002DA609B6813F0200F06D1FFF7A5
:103B5000B7FF98B1032084F821000FE0084A93686A
:103B600023F020039360FFF7ABFF10B1032084F82C
:103B70002100034A936843F02003936010BD00BF07
:103B80000028004000284ED038B5044690F8213077
:103B900063B1022384F821302368DA6812F0100F31
:103BA00009D00020012384F8213038BD80F820306E
:103BB000FEF76AF8EDE7CA225A62236853225A6276
:103BC0002046FFF797FFC0B92268936823F4E0030B
:103BD00023F04003936021688A6863682069034387
:103BE000A069034313438B602368E2681A6122686B
:103BF0001369A16843EA014313612046FFF79CFF64
:103C000058B92268D36C23F00303D3642168CB6CCA
:103C1000E26965692A431343CB642368FF225A6231
:103C20000028C2D1BEE701207047002302E0013323
:103C30000A38C0B20928FAD81B01DBB21843704712
:103C400090F82030012B5FD070B504460D46164623
:103C5000012380F82030022380F821300368CA2233
:103C60005A62036853225A62FFF744FF00282ED19C
:103C7000002E37D123689B6813F0400F01D1002339
:103C8000EB702878FFF7D1FF06046878FFF7CDFFC7
:103C900046EA0026A878FFF7C8FF46EA0003EA785C
:103CA00043EA8253226803F07F3323F0FE4313601C
:103CB0002268936823F48023936021688B68EA6804
:103CC0002869024313438B602046FFF735FF2368C2
:103CD000FF225A6210B9012384F82130002384F8AE
:103CE000203070BD23689B6813F0400F01D1002382
:103CF000EB702A786B781B0243EA0243AA781343DD
:103D0000EA7843EA8253CDE70220704790F82030EA
:103D1000012B4BD070B504460E46012380F82030AD
:103D2000022380F82130F2B1CB784D782D0245EA9C
:103D300003458B781D430B7845EA43352368CA2237
:103D40005A62236853225A622046FFF7D3FE18B303
:103D50002368FF225A6210B9012384F8213000231E
:103D600084F8203070BD4B7813F0100F03D003F0AF
:103D7000EF030A334B70F078FFF757FF05047078B4
:103D8000FFF753FF45EA0025B078FFF74EFF0543E4
:103D9000337845EA4335D1E7236825F07F4525F0A0
:103DA000C0055D602046FFF7C7FED1E702207047DF
:103DB000F8B590F82030012B00F0BD8004460E4687
:103DC000012380F82030022380F82130002A55D1C9
:103DD00003689B6813F0400F01D10023CB7030784B
:103DE000FFF723FF05047078FFF71FFF45EA002562
:103DF000B078FFF71AFF0543F37845EA835596F844
:103E00002400FFF712FF45EA0065336A1D4373691A
:103E10001D437768F3691F432368CA225A622368E7
:103E200053225A62B36AB3F5807F41D02268936807
:103E300023F4007393602268D368DBB263F42073C9
:103E4000D3602268936823F400539360FEF7F2F87E
:103E500006462368DA6812F0020F5AD1FEF7EAF834
:103E6000801BB0F57A7FF4D92368FF225A620320C1
:103E700084F82100002384F820305BE003689B680D
:103E800013F0400F01D10023CB70337875782D02E9
:103E900045EA0345B3781D43F37845EA835596F820
:103EA000243045EA0365336A1D4373691D43B0E757
:103EB0002268936823F4807393602268D368DBB22E
:103EC00063F4C073D3602268936823F480539360D3
:103ED000FEF7B0F806462368DA6812F0010F0FD13A
:103EE000FEF7A8F8801BB0F57A7FF4D92368FF228B
:103EF0005A62032084F82100002384F8203019E05E
:103F0000DD6123685F642268936843F48073936083
:103F100007E01D6223689F642268936843F400737E
:103F200093602368FF225A62012384F82130002025
:103F300084F82000F8BD0220FCE700002DE9F047DE
:103F400082B00546884617461E46FEF773F80A9B60
:103F50001B1A03EB0609FEF76DF88246284B1B6817
:103F6000C3F3CB3309FB03F301932B689C6838EA56
:103F700004040CBF01230023BB423DD0B6F1FF3F38
:103F8000F3D0FEF757F8A0EB0A00484507D2019A94
:103F900002B14A46019B013B01939146E5E72A683D
:103FA000536823F0E00353606B68B3F5827F0BD056
:103FB000AB6AB3F5005F14D0012385F85D300023B0
:103FC00085F85C30032018E0AB68B3F5004F02D0F1
:103FD000B3F5806FECD12A68136823F040031360B7
:103FE000E6E72A68136823F4005313602A6813680D
:103FF00043F400531360DFE7002002B0BDE8F08710
:10400000000000202DE9F04782B006460C46154618
:104010001F4600238DF80330FEF70CF80A9B1B1A8D
:1040200003EB0708FEF706F88146D6F800A0304BF0
:104030001B6803EB8303C3EBC3031B0D08FB03F3F4
:10404000019302E0B7F1FF3F12D133689B6803EAA6
:10405000040CAC4547D0B4F5C06FF3D1002DF1D1BD
:104060009AF80C30DBB28DF803309DF80330E9E7A5
:10407000FDF7E0FFA0EB0900404507D2019A02B12D
:104080004246019B013B01939046DEE7326853684C
:1040900023F0E00353607368B3F5827F0BD0B36AFB
:1040A000B3F5005F14D0012386F85D30002386F855
:1040B0005C30032018E0B368B3F5004F02D0B3F5CD
:1040C000806FECD13268136823F040031360E6E799
:1040D0003268136823F4005313603268136843F4A2
:1040E00000531360DFE7002002B0BDE8F08700BF97
:1040F0000000002070B582B004460D4616460092BE
:104100000B4600224FF4C051FFF77CFFB0B9009678
:104110002B46002280212046FFF710FFA8B9009609
:104120002B4600224FF4C0612046FFF76BFF50B1D1
:10413000236E43F020032366032004E0236E43F044
:1041400020032366032002B070BD236E43F02003DA
:1041500023660320F7E770B582B004460D46164685
:104160004368B3F5827F0DD000962B460022802154
:104170002046FFF7E3FE90B96368B3F5827F14D061
:1041800002B070BD8368B3F5004F02D0B3F5806F05
:10419000EAD12268136823F040031360E4E7236E3A
:1041A00043F0200323660320EAE7A368B3F5004F3A
:1041B00002D0B3F5806FE3D100962B4600224FF476
:1041C000C0612046FFF71EFF0028D9D0236E43F0C0
:1041D000200323660320D3E700286AD010B50446E5
:1041E000436A33B94368B3F5827F05D00023C361C6
:1041F00002E00023036143610023A36294F85D3071
:10420000002B4DD0022384F85D302268136823F020
:1042100040031360E368B3F5E06F47D90022B3F5BC
:10422000706F04D0B3F5E06F01D00023A362636820
:1042300003F48273A16801F404410B43216901F086
:1042400002010B43616901F001010B43A16901F413
:1042500000710B43E16901F038010B43216A01F061
:1042600080010B43A16A01F4005120680B430360F5
:10427000638B03F00403616A01F010010B43616B6F
:1042800001F008010B43E16801F470610B43216800
:1042900013434B6000202066012384F85D3010BD7D
:1042A00084F85C302046FDF717FDABE74FF48052F1
:1042B000B5E7012070472DE9F04383B004468946F5
:1042C00090461D46FDF7B6FE94F85D30012B40F098
:1042D000F0800646DFB2B9F1000F00F0EB80B8F1D4
:1042E000000F00F0E78094F85C30012B00F0E680CE
:1042F000012384F85C30032384F85D3000232366B7
:10430000C4F83890A4F83C80A4F83E802364A4F854
:104310004430A4F846302365E364A368B3F5004F46
:104320001ED023681A6812F0400F03D11A6842F0B9
:1043300040021A60E368B3F5E06F47D9636813B1D0
:10434000B8F1010F20D1A26B23681288DA60A36B49
:104350000233A363E38F9BB2013B9BB2E38713E07D
:104360002268136823F0400313602268136843F443
:1043700080431360D5E7FDF75DFE801BA84202D3A2
:10438000B5F1FF3F1AD1CDB1E38F9BB2002B75D0B1
:1043900023689A6812F0020FEDD0A26B1288DA60DF
:1043A000A36B0233A363B4F83EC01FFA8CFC0CF17C
:1043B000FF3C1FFA8CFCA4F83EC0E5E7012384F81B
:1043C0005D30002384F85C30032773E0636813B129
:1043D000B8F1010F28D1E38F9BB2012B0CD9A26B4E
:1043E00023681288DA60A36B0233A363E38F9BB266
:1043F000023B9BB2E38717E0A26B236812781A7323
:10440000A36B0133A363E38F9BB2013B9BB2E387B2
:104410000AE0A36B1B88D360A36B0233A363E38F13
:104420009BB2023B9BB2E387E38F9BB233B322681C
:10443000936813F0020F0FD0E38F9BB2012BE8D8E3
:10444000A36B1B781373A36B0133A363E38F9BB23E
:10445000013B9BB2E387E7E7FDF7ECFD801BA84239
:1044600002D3B5F1FF3F01D1002DDDD1012384F846
:104470005D30002384F85C3003271BE03246294678
:104480002046FFF737FE08B120232366A36833B91F
:1044900001932368DA6801929B680193019B0123D1
:1044A00084F85D30002384F85C30236E13B9002754
:1044B00000E00227384603B0BDE8F0830227F9E7A1
:1044C0002DE9F8430446884691461F46089DFDF7AE
:1044D000B1FD064694F85D306268012B0BD0D9B26D
:1044E000B2F5827F40F05B81A368002B40F05A81D7
:1044F000042940F05981B8F1000F00F05781B9F15B
:10450000000F00F05581002F00F0548194F85C30CA
:10451000012B00F05181012384F85C3094F85D3068
:10452000042B02D0052384F85D3000232366C4F8F1
:104530004090A4F84670A4F84470C4F83880E78727
:10454000A787E3642365E368B3F5E06F01D8012F23
:1045500023D92268536823F48053536023681A6870
:1045600012F0400F03D11A6842F040021A60E3686B
:10457000B3F5E06F5FD963680BB1012F0BD1A26B6C
:1045800023681288DA60A36B0233A363E38F9BB2C4
:10459000013B9BB2E387012730E02268536843F474
:1045A00080535360DAE7A26B1288DA60A36B0233A0
:1045B000A363E38F9BB2013B9BB2E3870027236891
:1045C0009A6812F0010F11D0B4F8462092B26AB185
:1045D000DA68236C1A80236C02332364B4F8463003
:1045E0009BB2013B9BB2A4F846300127FDF722FDA8
:1045F000831BAB4202D3B5F1FF3F14D1E38F9BB2D3
:104600002BB9B4F846309BB2002B00F0B180236880
:104610009A6812F0020FD2D0E28F92B2002ACED066
:10462000002FCCD0BFE7012384F85D30002384F84D
:104630005C300320B4E063680BB1012F0FD1E38F2E
:104640009BB2012B0DD9A26B23681288DA60A36B91
:104650000233A363E38F9BB2023B9BB2E387012744
:1046600049E0A26B236812781A73A36B0133A3632A
:10467000E38F9BB2013B9BB2E387F0E7E28F92B2FC
:10468000012A0CD9A26B1288DA60A36B0233A363F0
:10469000E38F9BB2023B9BB2E38700273DE0A26B16
:1046A00012781A73A36B0133A363E38F9BB2013BB0
:1046B0009BB2E387002730E02268536843F48053BD
:1046C000536001270DE0226C1B7B1370236C0133B8
:1046D0002364B4F846309BB2013B9BB2A4F8463049
:1046E0000127FDF7A7FC801BA84202D3B5F1FF3FCD
:1046F00036D1002D34D0E38F9BB223B9B4F84630C5
:104700009BB2002B34D023689A6812F0020F04D0B9
:10471000E28F92B20AB1002FB0D123689A6812F0EA
:10472000010FDED0B4F8462092B2002AD9D0B4F8F6
:10473000462092B2012AC6D9DA68236C1A80236C0B
:1047400002332364B4F846309BB2023B9BB2A4F818
:104750004630B4F846309BB2012BADD90127C0E7F3
:10476000012384F85D30002384F85C30032017E0D7
:10477000324629462046FFF7BDFC48B9012384F89C
:104780005D30002384F85C30236E4BB1012007E0DC
:1047900020232366002384F85C30012000E00220FF
:1047A000BDE8F8830220FBE70220F9E70120F7E7E4
:1047B0000120F5E70120F3E70220F1E72DE9F043BE
:1047C00083B01D4690F85D30012B40F0CA8004464E
:1047D00089469046DFB24368B3F5827F02D1836891
:1047E000002B3DD0FDF726FC0646B9F1000F00F086
:1047F000B980B8F1000F00F0B58094F85C30012B5F
:1048000000F0B480012384F85C30042384F85D3028
:1048100000232366C4F84090A4F84480A4F846809E
:10482000A363A387E387E3642365E368B3F5E06FDD
:1048300020D92268536823F480535360A368B3F5EA
:10484000004F1DD023681A6812F0400F03D11A6878
:1048500042F040021A60E368B3F5E06F24D94CE0FF
:10486000042380F85D30009513460A46FFF728FEC2
:10487000074677E02268536843F480535360DDE7CE
:104880002268136823F0400313602268136823F43E
:1048900080431360D6E7FDF7CDFB801BA84202D30F
:1048A000B5F1FF3F18D1BDB1B4F846309BB2002B33
:1048B00045D023689A6812F0010FECD0226C1B7B64
:1048C0001370236C01332364B4F846309BB2013B70
:1048D0009BB2A4F84630E7E7012384F85D3000235B
:1048E00084F85C3003273DE0FDF7A4FB801BA84261
:1048F00002D3B5F1FF3F1AD1CDB1B4F846309BB227
:10490000EBB123689A6812F0010FEDD0DA68236CDE
:104910001A80236C02332364B4F846C01FFA8CFC5F
:104920000CF1FF3C1FFA8CFCA4F846C0E5E701231C
:1049300084F85D30002384F85C30032712E03246AF
:1049400029462046FFF707FC08B1202323660123F0
:1049500084F85D30002384F85C30236E13B900279F
:1049600000E00227384603B0BDE8F0830227F9E7EC
:1049700030B4026A036A23F0010303624468836966
:1049800023F4803323F073030D681D4322F00202E9
:104990008B681343144A904207D002F5A05290420C
:1049A00003D002F58062904205D123F00803CA6863
:1049B0001A4322F004030C4A904207D002F5A05299
:1049C000904203D002F58062904205D124F44074F5
:1049D0004A6922438C691443446085614A68426392
:1049E000036230BC704700BF002C014030B4036A42
:1049F000026A22F4807202624468C26922F4803240
:104A000022F073020D68154323F400738A6843EAA9
:104A10000223104A904207D00F4A90420BD002F571
:104A2000806290420FD106E023F40063CA6843EA33
:104A3000022323F4806324F440544A6944EA0214B4
:104A40008A6944EA02144460C5614A68C263036229
:104A500030BC7047002C01400040014030B4026A75
:104A6000036A23F4805303624468C36923F08073AC
:104A700023F4E6430D6843EA052322F400528D68CF
:104A800042EA05320B4DA84207D005F5A055A842D1
:104A900003D005F58065A84204D124F480444D6913
:104AA00044EA85144460C3614B680364026230BC0D
:104AB000704700BF002C014030B4036A026A22F440
:104AC000803202624468426D22F4803222F0700229
:104AD0000D682A4323F400338D6843EA05430B4DE8
:104AE000A84207D005F5A055A84203D005F580657A
:104AF000A84204D124F480344D6944EA052444607A
:104B000042654A688265036230BC7047002C0140F0
:104B100030B4026A036A23F4801303624468436D6D
:104B200023F0807323F4E0430D6843EA052322F465
:104B300000128D6842EA05520B4DA84207D005F5D8
:104B4000A055A84203D005F58065A84204D124F4FD
:104B500080244D6944EA8524446043654B68C365FD
:104B6000026230BC704700BF002C014010B4036AE1
:104B7000046A24F001040462846924F0F00C4CEA15
:104B8000021223F00A030B438261036210BC7047D8
:104B900010B4036A046A24F010040462846924F4E3
:104BA000704C4CEA023223F0A00343EA0113826105
:104BB000036210BC7047836823F070030B4343F01B
:104BC000070383607047000003681E4A904202D0CA
:104BD000B0F1804F03D123F070034A681343194AA0
:104BE00090420AD0B0F1804F07D002F5A052904217
:104BF00003D002F58062904203D123F44073CA6867
:104C0000134323F080034A69134303608B68C36234
:104C10000B6883620B4B984207D003F5A053984270
:104C200003D003F58063984201D10B69036301232C
:104C30004361036913F0010F03D0036923F00103FB
:104C400003617047002C014060B310B5044690F832
:104C50003D3013B3022384F83D30214651F8040B54
:104C6000FFF7B2FF012384F8483084F83E3084F81F
:104C70003F3084F8403084F8413084F8423084F882
:104C8000433084F8443084F8453084F8463084F862
:104C9000473084F83D30002010BD80F83C30FDF7EF
:104CA00077F8D7E70120704760B310B5044690F855
:104CB0003D3013B3022384F83D30214651F8040BF4
:104CC000FFF782FF012384F8483084F83E3084F8EF
:104CD0003F3084F8403084F8413084F8423084F822
:104CE000433084F8443084F8453084F8463084F802
:104CF000473084F83D30002010BD80F83C30FDF78F
:104D00005DF8D7E70120704730B4036A026A22F0E9
:104D1000100202624468826922F0807222F4E64244
:104D20000D6842EA052223F020038D6843EA05134B
:104D3000104DA84207D0104DA8420BD005F5806554
:104D4000A8420FD106E023F08003CD6843EA0513A3
:104D500023F0400324F440644D6944EA85048D69DE
:104D600044EA8504446082614A688263036230BC1D
:104D7000704700BF002C01400040014038B590F85A
:104D80003C30012B00F0958004460D46012380F84D
:104D90003C30142A00F28880DFE802F00B86868619
:104DA0001F86868634868686488686865D868686C3
:104DB00071000068FFF7DCFD2268936943F0080387
:104DC00093612268936923F00403936122689369D5
:104DD00029690B439361002067E00068FFF794FFA7
:104DE0002268936943F4006393612268936923F412
:104DF0008063936122689369296943EA012393617F
:104E0000002052E00068FFF7F1FD2268D36943F00B
:104E10000803D3612268D36923F00403D3612268B5
:104E2000D36929690B43D36100203EE00068FFF796
:104E300015FE2268D36943F40063D3612268D36905
:104E400023F48063D3612268D369296943EA01238B
:104E5000D361002029E00068FFF72EFE2268536D21
:104E600043F0080353652268536D23F00403536530
:104E70002268536D29690B435365002015E00068D3
:104E8000FFF746FE2268536D43F4006353652268C2
:104E9000536D23F4806353652268536D296943EA97
:104EA00001235365002000E00120002384F83C30FA
:104EB00038BD0220FCE710B4846824F47F4C42EA39
:104EC00003220A4342EA0C02826010BC70470000D1
:104ED00090F83C30012B76D010B50446012380F8C1
:104EE0003C30022380F83D3002689068374B034025
:104EF00093600B68602B4CD023D8402B54D011D832
:104F0000202B03D00AD80BB1102B05D119462068ED
:104F1000FFF751FE002028E0012026E0302BF5D0DD
:104F2000012022E0502B0AD1CA6849682068FFF7A7
:104F30001DFE50212068FFF73EFE002015E00120F5
:104F400013E0B3F5805F3AD0B3F5005F14D0702B57
:104F500037D1CB684A6889682068FFF7ACFF2268C0
:104F6000936843F0770393600020012384F83D3079
:104F7000002384F83C3010BDCB684A6889682068FB
:104F8000FFF799FF2268936843F480439360002001
:104F9000EBE7CA6849682068FFF7FAFD60212068DE
:104FA000FFF709FE0020E0E7CA6849682068FFF7BC
:104FB000DDFD40212068FFF7FEFD0020D5E7002041
:104FC000D3E70120D1E70220704700BF8800FEFF31
:104FD00090F83C20012A2FD030B40346012280F8FB
:104FE0003C20022280F83D20006842688468134D0E
:104FF000A8421CD022F070020D682A4342601A6851
:105000000E48824206D0B2F1804F03D000F5A05086
:10501000824204D124F080048968214391600122F6
:1050200083F83D20002083F83C0030BC704722F418
:1050300070024D682A43DDE702207047002C0140D2
:1050400090F83C30012B3AD010B40246012380F88E
:105050003C30CB6823F440738868034323F48063B7
:105060004868034323F400630868034323F4805330
:105070000869034323F400534869034323F480433E
:10508000886A034323F47023886943EA0043106865
:105090000C4CA04205D04364002082F83C0010BCB8
:1050A000704723F470034C6A43EA045323F080737F
:1050B000CC69234323F00073096A0B43EBE702201A
:1050C000704700BF002C0140026852E8003F23F403
:1050D000907342E800310029F6D1026802F108031A
:1050E00053E8003F23F00103083242E80031002971
:1050F000F3D1036E012B06D02023C0F880300023AB
:10510000036683667047026852E8003F23F010038D
:1051100042E800310029F6D1EEE7704708B5026891
:1051200052E8003F23F0400342E800310029F6D165
:105130002023C3670023C366FFF7EFFF08BD704756
:10514000704708B5806A0023A0F85A30A0F85230A2
:10515000FFF7F6FF08BD704770B504460268D369D3
:105160001168906840F60F0C13EA0C0F0AD113F087
:10517000200F0DD011F0200F0AD0A36E0BB32046E4
:1051800098471EE010F001051CD1AD4E314219D1F7
:10519000256E012D00F0A48013F4801F03D010F4BD
:1051A000800F40F0468113F0800F03D011F0800F84
:1051B00040F04A8113F0400F03D011F0400F40F04F
:1051C0004A8170BD13F0010F09D011F4807F06D021
:1051D00001201062D4F884200243C4F8842013F024
:1051E000020F09D045B1226802201062D4F8842051
:1051F00042F00402C4F8842013F0040F09D045B132
:10520000226804201062D4F8842042F00202C4F81C
:10521000842013F0080F0BD011F0200F00D13DB106
:10522000226808201062D4F884200243C4F8842045
:1052300013F4006F0CD011F0806F09D022684FF486
:1052400000601062D4F8842042F02002C4F8842068
:10525000D4F88420002AB4D013F0200F06D011F027
:10526000200F03D0A36E0BB120469847D4F88420BA
:1052700023689B6813F0400F02D112F0280F28D04A
:105280002046FFF721FF23689B6813F0400F1CD0D6
:10529000226802F1080353E8003F23F0400308327C
:1052A00042E800310029F3D1636F53B1654A9A6334
:1052B000606FFCF77EFF002883D0606F836B984798
:1052C0007FE72046FFF73CFF7BE72046FFF738FFEC
:1052D00077E72046FFF734FF0023C4F8843070E7F7
:1052E00013F0100F3FF458AF11F0100F3FF454AF0C
:1052F0001023136223689B6813F0400F5FD0616F27
:105300000A6853689BB2002B49D0B4F85800984201
:1053100045D9A4F85A300B681B6813F0200F31D11F
:10532000226852E8003F23F4807342E800310029EC
:10533000F6D1226802F1080353E8003F23F001038D
:10534000083242E800310029F3D1226802F1080353
:1053500053E8003F23F04003083242E800310029BF
:10536000F3D12023C4F8803000232366226852E85A
:10537000003F23F0100342E800310029F6D1606FAE
:10538000FCF7F3FE02236366B4F85810B4F85A3001
:105390009BB2C91A89B22046FFF7DDFE11E7B4F8C7
:1053A000581099427FF40DAF136813F0200F3FF4AB
:1053B00008AF022363662046FFF7CDFE01E7B4F88D
:1053C0005810B4F85A309BB2C91A89B2B4F85A309E
:1053D0009BB2002B3FF4F5AE00293FF4F2AE2268F9
:1053E00052E8003F23F4907342E800300028F6D1E1
:1053F000226802F1080353E8003F23F0010308325A
:1054000042E800300028F3D12023C4F88030002384
:105410002366A366226852E8003F23F0100342E8A7
:1054200000300028F6D1022363662046FFF793FE82
:10543000C7E64FF480131362204600F077FCC0E605
:105440002001000443510008E36E002B3FF4B9AE85
:1054500020469847B5E62046FFF760FEB1E600BF5C
:1054600008B5B0F85C30D0F88020222A06D0026857
:10547000138B9BB243F00803138308BD0268918C21
:10548000DBB2426D0B401370436D01334365B0F8DE
:105490005A309BB2013B9BB2A0F85A30B0F85A3058
:1054A0009BB2002BE9D1026852E8003F23F49073CD
:1054B00042E800310029F6D1026802F1080353E8FE
:1054C000003F23F00103083242E800310029F3D104
:1054D0002023C0F880300023836643660368164AA1
:1054E00093420CD05B6813F4000F08D0026852E8B6
:1054F000003F23F0806342E800310029F6D1036EBB
:10550000012B16D100230366026852E8003F23F006
:10551000100342E800310029F6D10368DA6912F07D
:10552000100F01D010221A62B0F85810FFF713FEC6
:10553000A3E7FFF704FEA0E70080004008B5B0F83D
:105540005C30D0F88020222A06D00268138B9BB2F0
:1055500043F00803138308BD0268918C426D0B4031
:105560001380436D02334365B0F85A309BB2013B60
:105570009BB2A0F85A30B0F85A309BB2002BEAD157
:10558000026852E8003F23F4907342E8003100299A
:10559000F6D1026802F1080353E8003F23F001034B
:1055A000083242E800310029F3D12023C0F88030CE
:1055B0000023836643660368164A93420CD05B68F7
:1055C00013F4000F08D0026852E8003F23F0806314
:1055D00042E800310029F6D1036E012B16D10023D9
:1055E0000366026852E8003F23F0100342E80031EE
:1055F0000029F6D10368DA6912F0100F01D01022E9
:105600001A62B0F85810FFF7A6FDA4E7FFF797FD60
:10561000A1E700BF0080004010B50446836802691E
:10562000134342691343C269134301680868944AEB
:1056300002401A430A602268536823F44053E16829
:105640000B435360A16922688E4B9A4201D0236AB2
:105650001943936823F430630B43936023688A4AA9
:1056600093421FD0894A934230D0894A934246D010
:10567000844A934255D0102282498B427AD0E06905
:10568000B0F5004F00F0A680082A00F20981DFE89B
:1056900012F0CE00E200CC000701E500070107018F
:1056A0000701E80002F55842D2F8882002F0030210
:1056B000032A09D8DFE802F002044A060122DBE7E8
:1056C0000422D9E70822D7E71022D5E702F5E6320F
:1056D000D2F8882002F00C020C2A0ED8DFE802F083
:1056E000070D0D0D090D0D0D380D0D0D0B000022D0
:1056F000C2E70422C0E70822BEE71022BCE702F599
:10570000E432D2F8882002F03002202A22D004D8D5
:1057100012B3102A22D10422AEE7302A20D1082267
:10572000AAE702F5C832D2F8882002F44062B2F546
:10573000006F17D005D8BAB1B2F5806F16D1042228
:105740009AE7B2F5406F13D1082295E7022293E75A
:10575000022291E702228FE700228DE710228BE7D9
:10576000102289E7022287E7002285E7102283E7DB
:10577000102281E7082A77D8DFE802F00876107651
:105780000D76767605004FF4004008E0FDF70AFF3D
:1057900028B9002085E0FDF7B1FAF9E73D486268D5
:1057A00002EB4203834261D8B0EB023F60D8010EA6
:1057B00000025308C0184FF0000341F10001FAF74E
:1057C000FFFCA0F54072344B9A4253D82368D8604E
:1057D000002066E0082A4FD8DFE802F00721054ED6
:1057E000244E4E4E0B002B4803E0FDF7DBFE002855
:1057F00044D06268530803EB4003B3FBF2F3A3F118
:1058000010014FF6EF72914248D89AB222F00F027F
:10581000C3F3420313432268D360002041E0FDF745
:10582000D3FEE4E7FDF76AFAE1E71A4803E0FDF783
:10583000B9FE002839D0636800EB5300B0FBF3F0E9
:10584000A0F110024FF6EF739A4230D8236880B26D
:10585000D860002025E0FDF7B7FEEAE7FDF74EFA35
:10586000E7E74FF40040E6E701201AE0012018E0E6
:10587000012016E0012014E0012012E0002010E0D9
:10588000F369FFEF00800040003801400044004011
:10589000004800400024F400FFFC0F00012000E05D
:1058A00001200023A366E36610BD0020F9E7012074
:1058B000F7E700BF436A13F0080F06D00268536889
:1058C00023F40043416B0B435360436A13F0010F11
:1058D00006D00268536823F40033816A0B43536097
:1058E000436A13F0020F06D00268536823F4803332
:1058F000C16A0B435360436A13F0040F06D0026879
:10590000536823F48023016B0B435360436A13F005
:10591000100F06D00268936823F48053816B0B4309
:105920009360436A13F0200F06D00268936823F453
:105930000053C16B0B439360436A13F0400F0AD0CE
:105940000268536823F48013016C0B435360036CAB
:10595000B3F5801F0BD0436A13F0800F06D00268A6
:10596000536823F40023816C0B4353607047026833
:10597000536823F4C003416C0B435360EBE72DE9FC
:10598000F84305460E4617469946DDF820802B68F9
:10599000DC6936EA04040CBF01240024BC4236D181
:1059A000B8F1FF3FF3D0FCF745FBA0EB0900404501
:1059B00030D8B8F1000F2FD02B681A6812F0040FFE
:1059C000E5D0802EE3D0402EE1D0DA6912F0080F46
:1059D00011D1DA6912F4006FD9D04FF400621A6263
:1059E0002846FFF771FB2023C5F88430002385F893
:1059F000783003200CE008241C622846FFF764FB83
:105A0000C5F88440002385F87830012000E00020AC
:105A1000BDE8F8830320FBE70320F9E72DE9F04117
:105A200082B01E46C36F202B56D104460D469046C9
:105A3000002955D00AB901204FE00023C0F8843076
:105A40002123C367FCF7F6FA0746A4F85080A4F8B0
:105A50005280A368B3F5805F02D04FF0000815E0D4
:105A600023693BB34FF0000810E02023E3670320D5
:105A700033E038F8023B2268C3F308031385B4F817
:105A8000522092B2013A92B2A4F85220B4F85230A5
:105A90009BB293B100963B46002280212046FFF73F
:105AA0006EFF0028E1D1002DE3D015F8012B23680B
:105AB0001A85E4E7A8460025E8E700963B46002261
:105AC00040212046FFF75BFF10B92023E36704E085
:105AD0002023E367032000E0022002B0BDE8F0814C
:105AE0000120FAE730B583B004460023C0F88430C3
:105AF000FCF7A0FA05462268126812F0080F0FD1D1
:105B000023681B6813F0040F26D12023E367C4F831
